:0200000480007A
:100000003741000213010100B70100029381010092
:10001000B7350080938505C537360080130606C6C0
:10002000B70600029386060039A083A2050023A02C
:10003000560091059106E3EAC5FEB70500029385D7
:100040000501373600021306065D21A023A0050036
:100050009105E3EDC5FEB7000080E7804007B700DB
:100060000080E7804007B7200080E780000F730022
:100070005010F5BF8280000000000000000000006A
:100080000000000000000000000000000000000070
:100090000000000000000000000000000000000060
:1000A0000000000000000000000000000000000050
:1000B0000000000000000000000000000000000040
:1000C0006F000014197106C20AC40EC612C816CAFF
:1000D0001ACC1ECE22D026D22AD42ED632D836DA48
:1000E0003ADC3EDEC2C0C6C2CAC4CEC6D2C8D6CA78
:1000F000DACCDECEE2D0E6D2EAD4EED6F2D8F6DA28
:10010000FADCFEDE970000009380E00482909240CB
:100110002241B2414242D2426243F24302549254DB
:100120002255B2554256D2566257F2570648964863
:100130002649B649464AD64A664BF64B065C965C5B
:10014000265DB65D465ED65E665FF65F096173004A
:10015000203001A0000000000000000000000000AE
:10016000000000000000000000000000000000008F
:10017000000000000000000000000000000000007F
:10018000000000000000000000000000000000006F
:10019000000000000000000000000000000000005F
:1001A000000000000000000000000000000000004F
:1001B000000000000000000000000000000000003F
:1001C000000000000000000000000000000000002F
:1001D000000000000000000000000000000000001F
:1001E000000000000000000000000000000000000F
:1001F00000000000000000000000000000000000FF
:10020000130181F806C216C41AC61EC822CA26CC1B
:100210002ACE2ED032D236D43AD63ED842DA46DC76
:100220004ADECEC0D2C2D6C4DAC6DEC8E2CAE6CC46
:10023000EACEEED0F2D2F6D4FAD6FED8F3220030CF
:1002400096DA9702008283A2E2E023A022007325BF
:100250002034F32510341356F50109CA2EC01701B6
:1002600000820321A1DAEF1010790DA091052EC0B4
:10027000AD426319550017010082032121D9EF0017
:10028000307329A00290FDBF0290FDBF17030082CA
:10029000032343DC03210300824273901234D652BD
:1002A000739002309240A2423243C2435244E2442D
:1002B000724582551256A2563257C2575258E258CA
:1002C00072598649164AA64A364BC64B564CE64CDE
:1002D000764D865D165EA65E365FC65F13018107AA
:1002E0007300203013000000130000001300000012
:1002F00013000000130000001300000013000000B2
:1003000017010082032101D502418240D652739029
:100310000230A2423243C2435244E2447245825503
:100320001256A2563257C2575258E258725986494D
:10033000164AA64A364BC64B564CE64C764D865D61
:10034000165EA65E365FC65F1301810782801300CA
:100350000000130000001300000013000000130051
:100360000000130000001300000013000000130041
:100370000000130000001300000013000000130031
:100380000000130000001300000013000000130021
:100390000000130000001300000013000000130011
:1003A0000000130000001300000013000000130001
:1003B00000001300000013000000130000001300F1
:1003C00000001300000013000000130000001300E1
:1003D00000001300000013000000130000001300D1
:1003E00000001300000013000000130000001300C1
:1003F00000001300000013000000130000000100C3
:10040000F3220030130380181203B3E26200711567
:1004100023205500130585FA10C12115232005005E
:10042000814263870200711523200500FD12D5BFAC
:1004300071150CC182800000000000000000000067
:1004400000000000000000000000000000000000AC
:10045000000000000000000000000000000000009C
:10046000000000000000000000000000000000008C
:10047000000000000000000000000000000000007C
:10048000000000000000000000000000000000006C
:10049000000000000000000000000000000000005C
:1004A000000000000000000000000000000000004C
:1004B000000000000000000000000000000000003C
:1004C000000000000000000000000000000000002C
:1004D00000000000C1676376F5029337051093C7EB
:1004E00017008E07130700021D8F3355F50097275D
:1004F00000009387A755AA9703C507003305A740B7
:10050000828037070001C147E36EE5FCE147D9BFB0
:10051000411106C622C426C22A849377750081C77A
:10052000137485FF2104EF005031B707000283A741
:1005300007019DC7B707000203A747013A948D67DB
:10054000DD1763E98702636B8702EF10003981448E
:10055000EF10D04E2685B240224492444101828061
:10056000B707000293878707E19B3707000223281C
:10057000F700C9B7EF1060368144D9BFB707000252
:1005800083A40701BA94B707000223AA8700EF10DB
:10059000C034E9F075BF01C9411106C6EF10304BF8
:1005A000B240410182808280011106CE02C6F3274B
:1005B00050303EC6B2478D8B89EFEF10D040856733
:1005C0009387078073A04730253B0145F2400561C2
:1005D0008280EF10D047D5B701A0930785005CC19A
:1005E0007D5718C55CC51CC92320050082802328BF
:1005F000050082805C41DCC1984798C54CC38CC71C
:1006000088C91C4185071CC182809041FD57630346
:10061000F60293078500BE86DC439843E37DE6FE41
:10062000DC42DCC18CC794C5CCC288C91C4185079B
:100630001CC182801449EDB71C495441184598C625
:10064000544154C3D8436309A700232805009843A5
:100650007D1798C3884382801845D8C3FDB7AA8701
:10066000485109C59C5B9C431D451D8D82804111ED
:1006700006C622C42A84EF00D07F185C5C5C630A43
:10068000F7000144EF1000012285B24022444101ED
:1006900082800544C5BF411106C622C42A84EF00EA
:1006A000507D1C5C89EB0544EF00D07E2285B24072
:1006B0002244410182800144C5BF411106C622C4C3
:1006C00026C24AC02A84B2840329850330411DE230
:1006D0001C4199CB0145930719001CDCB240224410
:1006E00092440249410182800845EF00105D2324B5
:1006F0000400D5B799EC4841EF2040055C403840F4
:10070000BA975CC0184463EFE7021C405CC02685C2
:10071000D9B74845EF2080035C443840B306E04039
:10072000998F5CC4184063F5E7001C44B6975CC41D
:1007300089476384F400014579BF630709007D1987
:10074000014551BF268541BF014571B7AA87304198
:1007500015C2411106C62E85D8473297D8C794478F
:100760006364D7009843D8C7CC47EF10307EB240BF
:10077000410182808280411106C622C426C2AA8419
:10078000EF00306F03C454046204618421A07D141F
:1007900062046184635C8000DC5089CB1385440271
:1007A000EF00B0336DD5EF00B03ED5B7FD57A38253
:1007B000F404EF00306EEF00D06B03C44404620415
:1007C000618421A07D1462046184635C80009C4884
:1007D00089CB13850401EF0050306DD5EF00503BFD
:1007E000D5B7FD572382F404EF00D06AB24022440B
:1007F000924441018280411106C622C426C22A8445
:10080000AE8431C1EF00F0661C40545C3840338642
:10081000E6023E9610C4232C04025CC0FD1633078A
:10082000D702BA975CC4FD572302F404A302F40470
:1008300095E41C4881EFEF00F0650545B240224485
:10084000924441018280EF1090206DBF1305040196
:10085000EF00B0286DD173000000F1BF1305040153
:10086000AD3B13054402953BF9B7411106C6AA8773
:100870003A8589E918C15CDD2CC18545AD3FB240A0
:100880004101828010C3C5BF011106CE22CC26CA09
:100890004AC84EC62A89AE84B28905C995C83305AF
:1008A000990213058504AD312A8401C92A87CE86B1
:1008B00013068504A6854A854D3F2285F240624491
:1008C000D2444249B24905618280EF105018F9B70D
:1008D0002685C1BF397106DE22DC26DA4AD84ED61B
:1008E0002A84AE8932C6B68409CD638F0900894750
:1008F0006381F402EF00902A19E1B24795E30149C0
:1009000049A0EF10D014D5B73C40F5D3EF10301408
:10091000F9BF585C8547E30FF7FCEF105013D9BFC0
:10092000EF10F012E9BF2686CE85228579335C5020
:1009300091EF19C173000000EF00D0550545F2504A
:100940006254D2544259B259216182801305440243
:10095000EF00B01875D173000000F9BFEF0090539D
:100960000145F1BF2808EF005021054905A82302E1
:10097000040491A0A3020404B1A02285ED3BEF0082
:10098000D075EF00104F185C5C5CE36EF7F8894798
:10099000E38BF4F8B247F9D3E30609FCEF00904F7C
:1009A000EF00A069EF00F04C83474404E207E187C1
:1009B0007D57E38EE7FA83475404E207E1877D57CA
:1009C000E38AE7FAEF00104D6C002808EF10E0040E
:1009D0000DE12285693955D1B24513050401EF00B7
:1009E000B0082285493BEF00506F41FD73000000C5
:1009F00049BF22854933EF00506E014589B705C1D3
:100A0000411106C6232405002320050023260500E6
:100A10008146014681457D3DB24041018280828010
:100A2000411106C622C42A8681450545B13D2A8466
:100A3000F9372285B240224441018280011106CE5D
:100A400022CC26CA4AC84EC652C42A84AE89328AEB
:100A5000B68415C5638809028947638AF402185C65
:100A60005C5C636DF7028947638AF4020145F240DA
:100A70006244D2444249B249224A05618280EF1061
:100A8000007DC9BF3C40E9DBEF10607CF1B7585CEA
:100A90008547E306F7FCEF10807BD1B70349540488
:100AA0006209135989412686CE8522853931FD5741
:100AB000630AF9000509620913598941A302240553
:100AC000054575B75C5099E3054555B713054402D4
:100AD000EF00B00001C963090A0085472320FA002E
:100AE000054571B7054561B7054551B7397106DE52
:100AF00022DC26DA4AD84ED62A84AE8932C611C9FB
:100B0000638C0900EF00900919E1B24799EB0149A4
:100B100041A0EF10C073EDB73C40EDD7EF1020734C
:100B2000D5B7EF10C072E5B7CE8522850531FD142B
:100B300004DC1C4899EBEF00F0350545F250625497
:100B4000D2544259B2592161828013050401EF0049
:100B5000C07875D173000000F9BFEF00B0330145D4
:100B6000F1BF2808EF00700105491DA82302040405
:100B7000A1A0A302040481A82285F53EEF00F05550
:100B800001A82285CD3EEF005055228529363DE152
:100B9000EF00302E045CC9F8B247E1D3E30309FC4F
:100BA000EF00502F5929EF00D02C83474404E2076F
:100BB000E1877D57E38CE7FA83475404E207E18736
:100BC0007D57E388E7FAEF00F02C6C002808EF006F
:100BD000D06445F92285C13445D1B245130544029C
:100BE000EF0080682285413EEF00304F55F17300E1
:100BF000000079BF014599B7797106D622D426D273
:100C00004AD02A842EC619C93C4081EFEF000079F2
:100C100019E1B24791EB0149814479A8EF102063B3
:100C2000E5B7EF10C062DDB7EF106062EDB7FD17FA
:100C30001CDC1C4081CF1C4891EFEF00B02505451E
:100C4000B25022549254025945618280EF00906460
:100C500008C4D5B713050401EF00206879DD7300DF
:100C60000000E1BF63160900EF00D0220145C9BFB3
:100C7000EF10E05DD5BF2808EF0020708544A1A0EB
:100C800023020404A9A8A30204048DA0EF00701E8F
:100C90000844EF00A0722A89EF00D01FADA0228582
:100CA000D93CEF00904309A82285F134EF00F042CF
:100CB0002285EFF05F9E2DE5EF00B01B1C5CA5FBCD
:100CC000B247CDD3CDD8EF00F01C852EEF00701ABF
:100CD00083474404E207E1877D57E383E7FA8347CC
:100CE0005404E207E1877D57E38FE7F8EF00901A9D
:100CF0006C002808EF00705245F92285EFF0BF998B
:100D000059DD1C40C1D7B24513054402B12B2285E1
:100D1000EFF07FA6EF00703C45F17300000069BF63
:100D200063140900014529BFEF00B0142285EFF0DC
:100D30001F93AA850844EF009004EF00B015DDB7BB
:100D400001479D4763E5E70293163700B737000276
:100D500093870747B6979C4399C30507DDB7B73715
:100D6000000293870747B6978CC3C8C382808280EE
:100D7000411106C622C426C24AC02A84AE843289E2
:100D8000EF00300F83474404E207E1877D57638615
:100D9000E70283475404E207E1877D576382E70255
:100DA000EF00500F1C5C85C32285EFF0DF9CB24042
:100DB0002244924402494101828023020404D1BFAB
:100DC000A3020404F1BF4A86A68513054402F92153
:100DD000E1BFB707000283A7C7049C4399E7B707A1
:100DE00000027D5723A0E7028280B707000283A795
:100DF000C704DC47DC47D843B707000223A0E7025B
:100E00008280411106C622C42A840859EFF0AFF847
:100E10002285EFF04FF8B240224441018280011157
:100E200006CE22CC26CA4AC84EC652C456C22A8A08
:100E3000B68ABA84BE89428403290803B7070040F2
:100E4000FD173E960A063299137989FFC9C1814878
:100E50003D48636E180133881501034808003303C9
:100E60001401230A0303630408008508D5B7A3010E
:100E70000404994763F39700994444D424C4232677
:100E8000040413054400EFF08FF613058401EFF01E
:100E90000FF600C89D47858F1CCC40D02322040448
:100EA00023280404230A04045686D2854A85EFF0D9
:100EB0002FD508C06384090023A08900F240624452
:100EC000D2444249B249224A924A05618280230AA9
:100ED000080245B7011106CE22CC26CA4AC84EC622
:100EE000014405A0B73700029387074B131724006E
:100EF000229713152700938787023E95EFF0EFEDB9
:100F000005049947E3F087FEB73900021384094BC3
:100F10001309440B4A85EFF04FEC9304840C2685AB
:100F2000EFF0AFEB13054401EFF02FEB1305C40D09
:100F3000EFF0AFEA1385094BEFF02FEAB707000295
:100F400023A62705B707000223A49704F2406244B2
:100F5000D2444249B24905618280411106C622C489
:100F600026C24AC02A84AE84B707000203A9C70379
:100F7000B707000203A507051105EFF0EFEB15E138
:100F8000B707000283A70705D8578547B397E7003F
:100F900093C7F7FFB706000203A78603F98F23ACB8
:100FA000F602FD57630BF4024A94B707000283A7C9
:100FB0000705C0C363702405B707000203A58704B3
:100FC000B707000283A507059105EFF00FE4B240D3
:100FD00022449244024941018280F9D4B7070002B9
:100FE00083A507059105373500021305054BEFF082
:100FF0006FE0F1BFB707000203A5C704B7070002FF
:1010000083A507059105EFF04FE0B707000283A71E
:101010000702E37EF4FAB707000223A0870245BF68
:10102000411106C673700430B707000223AA0702F5
:10103000EFF08FDAB2404101828037070002832748
:1010400087018507232CF7008280B707000203A5DC
:10105000C7038280011106CE22CC26CA4AC84EC6DA
:10106000B707000283A78701639E0710B707000236
:1010700083A4C703850423AE97029DE8B707000247
:1010800083A7C7049C43ADE3370700028326C70448
:10109000B707000203A687042326C70423A4D704A6
:1010A000370700028327870285072324F7021533B9
:1010B000B707000283A7070263F9F40A0149B707DB
:1010C000000283A70705D85793172700BA971397ED
:1010D0002700B73700029387074BBA979857854781
:1010E00063FAE70A05497DA0EF10601671BF054954
:1010F000B707000283A7C7049C43B5CBB70700021C
:1011000083A7C704DC47C0475C4063E8F406930943
:1011100044004E85EFF04FD21C5489C7130584015B
:10112000EFF08FD154548547B397D70037070002AB
:1011300003268703D18F232CF702B737000293874A
:10114000074B13972600369713152700CE859387F4
:1011500087023E95EFF00FCA5854B707000283A7E5
:101160000705DC57E375F7F861B7014951B7B707D1
:1011700000027D5723A0E70299B73707000223201A
:10118000F70235BF370700028327070385072328A7
:10119000F7020149B707000283A7C70291C30549B7
:1011A0004A85F2406244D2444249B2490561828094
:1011B000B707000283A7870199C7B7070002054751
:1011C00023A6E7028280411106C622C4B7070002A7
:1011D00023A60702B707000203A58703EFF08FAF2E
:1011E0007D44098C1317240022970A07B7370002A1
:1011F0009387074BBA979C57A9CBB73700029387C1
:10120000074B13172400B30687008A06BE96D056F4
:101210005042D0D69387870222970A07BA97A10730
:101220006308F6021317240022970A07B737000253
:101230009387074BBA97DC57D847B707000223A814
:10124000E704B240224441018280EF10400075B7AC
:1012500054421317240022970A07B73700029387D6
:10126000074BBA97D4D77DBF411106C622C426C208
:101270002A84AE840DC1B707000283A50705E105E6
:101280002285EFF08FB885452685C139B2402244CA
:10129000924441018280EF00907BF1BF411106C66C
:1012A00022C426C24AC0AA842E89328405C5B70743
:1012B000000283A50705E1052685EFF0AFB311C055
:1012C0007D59A2854A855139B2402244924402494F
:1012D00041018280EF00B077D9BF411106C622C418
:1012E00026C25C45C04725CC930484012685EFF0D7
:1012F000AFB4B707000283A78701ADE793044400AA
:101300002685EFF06FB358548547B397E700B706CB
:10131000000203A68603D18F23ACF6023735000204
:101320001305054B93172700BA978A07A68513055F
:1013300085023E95EFF00FAC5854B707000283A723
:101340000705DC5763F9E702B7070002054723A644
:10135000E7020545B2402244924441018280EF00F9
:10136000106F59B7A685373500021305054B510597
:10137000EFF04FA8D1B70145F1BFB707000283A72F
:1013800087021CC1B707000283A7C7035CC1828024
:10139000B7070002054723A6E7028280B7070002CD
:1013A00083A7470391CBB707000283A7870199C39F
:1013B0000145828009458280054582807DC94111B1
:1013C00006C622C426C22A845455B707000283A742
:1013D0000705DC5763F5F60C1C4D63CA0700B70719
:1013E000000283A70705D8579D47998F1CCD504809
:1013F000B73700029387074B1397260036970A07E3
:1014000093878702BA97630EF600B707000283A797
:101410000705DC575CD40545B240224492444101A3
:101420008280930444002685EFF00FA10DE9545407
:101430001397260036970A07B73700029387074BA2
:10144000BA979C5789EF8547B397D70093C7F7FFA3
:101450003707000283268703F58F232CF702B7078F
:10146000000283A70705D85758D48547B397E700EC
:10147000B706000203A68603D18F23ACF6023735E8
:1014800000021305054B93172700BA978A07A68514
:10149000130585023E95EFF0EF950545B5BF38453C
:1014A000B707000283A70705DC576366F70001450D
:1014B000A5B701458280054585B755CD411106C6C2
:1014C00022C426C22A84B707000283A707056384C3
:1014D000A700EF00D0577C4499CF7C44FD177CC413
:1014E00054543844638BE60891CB0145B240224402
:1014F000924441018280EF009055C5B793044400A7
:101500002685EFF06F930DE9545413972600369714
:101510000A07B73700029387074BBA979C5789EFA2
:101520008547B397D70093C7F7FF37070002832695
:101530008703F58F232CF702384458D49D47998FA1
:101540001CCC8547B397E700B706000203A68603C5
:10155000D18F23ACF602373500021305054B9317E4
:101560002700BA978A07A685130585023E95EFF0F6
:101570006F880545A5BF01458280014585BF630988
:10158000050E411106C622C426C24AC02A84AE8472
:101590007C459DC3032984046373990026895C54A8
:1015A0006386270178448547630BF700B2402244E5
:1015B0009244024941018280EF007049E1BFB707C0
:1015C000000283A707056382870A54542326240355
:1015D0001C4C63C607009D47B38727411CCC50486D
:1015E000B73700029387074B1397260036970A07F1
:1015F00093878702BA97E31BF6FA93044400268583
:10160000EFF08F830DE954541397260036970A079D
:10161000B73700029387074BBA979C5789EF8547E6
:10162000B397D70093C7F7FF3707000283268703D6
:10163000F58F232CF70258548547B397E700B70678
:10164000000203A68603D18F23ACF60237350002D1
:101650001305054B93172700BA978A07A68513052C
:1016600085023E95EFE01FF991B7EF00503EB1BF04
:10167000828073700430B707000283A7470391CBC1
:101680003707000283260705FC428507FCC2832733
:1016900007058280B707000283A7470385C7B707FE
:1016A000000283A70705FC4391CF3707000283267A
:1016B0000705FC42FD17FCC283270705FC4399E39D
:1016C000736004308280411106C622C42A845537D3
:1016D000370700028327070485072320F704B7078D
:1016E000000283A707059DC3B707000283A747032E
:1016F0009DE7B707000283A70705D8575C5463E04E
:10170000E702B707000223A8870411A8B707000261
:1017100023A887040327070485476307F7063707CD
:1017200000028327470285072322F7025854854782
:10173000B397E700B706000203A68603D18F23AC58
:10174000F602373500021305054B93172700BA97A9
:101750008A0793054400130585023E95EFE09FE953
:10176000153FB707000283A7470399CBB7070002CD
:1017700083A70705D8575C546374F7007300000013
:10178000B240224441018280EFF0CFF449BF797129
:1017900006D622D426D24AD04ECE52CC56CA5AC8E9
:1017A0005EC62A89AE89B284368ABA8A3E8B131500
:1017B0002600EFE0FFD505CD2A8413058005EFE074
:1017C0003FD5AA8B05C100D981482A88DA87568778
:1017D000D2862686CE854A85EFF06FE45E85E535B4
:1017E000054539A02285EFE01FDB7D5511A07D5511
:1017F000B250225492540259F249624AD24A424BA0
:10180000B24B45618280411106C6B707000293873B
:10181000C7010147814613060020B7350080938534
:1018200085B4372500801305258D953785476308D6
:10183000F500FD57630CF502B24041018280A12EF4
:101840008547E318F5FE73700430B70700027D5733
:1018500023A0E702B7070002054723AAE702B7075C
:10186000000223AE0702EFE03FD4F9B7EF00301ECD
:10187000E1B7B707000283A74704B9CB411106C6F9
:1018800022C4C53BB73700029387074B83A7870E57
:10189000C04713054400EFE03FDA37070002832713
:1018A0000704FD172320F7043707000283274704A6
:1018B000FD172322F704F93B2285EFF08FD4B707F9
:1018C000000283A74704D5FFB24022444101828031
:1018D0008280411106C6713FFDBF411106C622C478
:1018E00026C24AC0B707000283A787019DC35133B0
:1018F000B707000203A787017D1723ACE70083A782
:101900008701E9E7B707000283A7070491E70144CD
:101910007DA8EF00D013E1BF8144B7370002938761
:10192000074BDC4BBDC3373400021304044B1C507F
:10193000C44713858401EFE03FD0138944004A85F2
:10194000EFE09FCFD8548547B397E700B706000272
:1019500003A68603D18F23ACF60213048402131569
:1019600027003A950A05CA852295EFE0BFC8D854EA
:10197000B707000283A70705DC57E360F7FAB7074C
:101980000002054723A6E70249BF99C0EFF06FC4E4
:10199000B707000203A4070301ECB707000203A482
:1019A000C70215C473000000054415A07D1411C8BA
:1019B000EFF04FEA65DDB7070002054723A6E7020F
:1019C000F5B7B707000223A80702C1BF0144D93108
:1019D0002285B240224492440249410182801DC9BD
:1019E000411106C622C42A84B707000283A78701D3
:1019F00099EFEFF08FE481452285EFF00FD6F13DAE
:101A000019E173000000B240224441018280EF00DE
:101A10001004C5B7730000008280411106C622C4BD
:101A200026C22A84AE8415CDA1C0EFF09FC4B707AB
:101A3000000283A6C7035C40B385F64098407D56FC
:101A4000630FC702084037060002032686026304BC
:101A5000C50063FFF60263ECE50023A00400054423
:101A600005A0EF00C07EC9B7EF00607E7DBF958FF7
:101A7000BA979CC02285EFF05F90014411A0014409
:101A8000EFF05FC12285B24022449244410182803E
:101A90000544FDB7B707000283A7070581CBB70749
:101AA000000203A707057C4785077CC7B70700022C
:101AB00003A507058280B707000203A747061C435A
:101AC00099E785471CC191E75C478843828081473D
:101AD000D5BF01458280411106C64CC108C9636467
:101AE000B602158E1C4D6366F6000545B2404101F5
:101AF000828093054500B707000203A50706EFE0C3
:101B0000DFB00145E5B76374D60063FCD5009305EB
:101B10004500B707000203A54706EFE01FAF0145E8
:101B2000F1B70545E1B7411106C622C426C2EFF060
:101B30005FB4B707000283A7C70581CBEFF09FB55D
:101B4000B24022449244410182803735000293041E
:101B5000055A1305055AEFE05FA813844401228556
:101B6000EFE0BFA7B707000223A29706B70700025E
:101B700023A087060146C1451145EFE0FFD0B70716
:101B8000000223AEA7045DD9B7350080938505B563
:101B9000EFF00F9B65B7411106C622C46937B7073E
:101BA000000283A7C70585CFB70700029387870583
:101BB0001947814613060020B7350080938585B507
:101BC00037250080130525F1EFF07FBC2A8419E149
:101BD000EF00E0672285B240224441018280014447
:101BE000C5BF797106D622D426D24AD04ECE52CC69
:101BF0002A84AE843289B6893A8A1DC9B7070002A1
:101C000003A5C70525C126C04AC222C4954763CE95
:101C10009702EFF0AFF88947630FF5008146014660
:101C20008A85B707000203A5C705EFE0BFCA1DA05C
:101C3000EF00E061E1B7814652868A85B70700026E
:101C400003A5C705EFE01FC931A081464E868A85EE
:101C5000EFE0DFDEB250225492540259F249624A58
:101C6000456182800145FDB7B707000283A747069B
:101C7000984359C3411106C622C426C24AC0DC4754
:101C800003A90700C047930444002685EFE0DF9ACC
:101C90001C502285829783474402918B9DE7B707AA
:101CA000000283A74706984379FB37070002032603
:101CB0000706B706000223A2C6062320F706B24095
:101CC000224492440249410182801C4CCA97637CA1
:101CD000F9005CC000C8A685B707000203A5470647
:101CE000EFE0BF926DBF014781464A86814522855C
:101CF000CD3D55F5A92B65B737070002032607062A
:101D0000B706000223A2C6062320F70682804111EF
:101D100006C622C426C2AA84EFF02FB32A84B707CE
:101D2000000283A74705636EF50023A00400B707F0
:101D3000000223AA87042285B24022449244410132
:101D400082801D3785479CC0DDB7411106C622C47D
:101D500026C24AC0AA842E89B707000283A7470675
:101D6000DC47C04713054400EFE01F8D8347440262
:101D700013F7470009EFF99B2302F4021C50228558
:101D80008297B240224492440249410182800C4C25
:101D9000A6864A86A69522853D3B6DD101478146A0
:101DA000268681452285353D71F95521C1BF011136
:101DB00006CE22CC26CA4AC82A892E84EFF0EFA785
:101DC0006800B137B247A1E7AA8405E8637125032B
:101DD0002286B3059940B707000203A5C705EFE0C7
:101DE0003FF9EFF09FAF15E5730000001DA0EFF085
:101DF000DFAEA6854A85913F29A837070002032751
:101E00000706184319E30544E1B73E84D1B7EFF064
:101E1000DFACF2406244D24442490561828079716C
:101E200006D622D426D221A0C24763D30702014698
:101E30000C08B707000203A5C705EFE03FCB69C553
:101E4000C247E3D307FEF2456245D2478297E9BF16
:101E500062445C4889C713054400EFE0EFFD680069
:101E60007D35AA84C2472547E363F7FC8A073737E5
:101E7000008013074789BA979C43828783474402AF
:101E800093E717002302F402D2460C4C2A86B6953B
:101E90002285EFF05FC441DD1C5022858297834785
:101EA0004402918BC9D71C4C0147814652463E964D
:101EB000814522853D3325FD592E95BF8347440238
:101EC000F99B2302F402A5B78347440293E7170066
:101ED0002302F402D2471CCC89CB0C4CA686268662
:101EE000A6952285EFF03FBF99B79526FDB78347AA
:101EF000440213F7270009C7F99B2302F40205BF28
:101F00002285EFE04FE925B7B25022549254456143
:101F10008280011106CE6800EFF0FFB9B245413D65
:101F2000FD3DD5BF411106C622C426C20144B5A05D
:101F3000B717080083A5474237350080130505B859
:101F4000EF00C07E814601468145B707000203A528
:101F50008706EFE03F987945EFF07FA80100B7D200
:101F60005B07938252D137E3600713030309B7136A
:101F70003A1B938333C837EE2F1B130EDE58B72E50
:101F80000E2F938EBE4F371F092F130FDF2CB7FF75
:101F90005B2E938F1F2701002684B757080083A765
:101FA0000780998393C71700858B370700022306A4
:101FB000F706FD55B707000203A58706EFE0DFC36C
:101FC00093041400A28537350080130505B6EF0091
:101FD000E0753715080013050540692131D99DB713
:101FE000411106C622C426C24AC00149CDA0370409
:101FF0000002FD5503258406EFE01FC0B757080017
:102000001307000823A2E780CA853735008013052F
:1020100085BAEF00A07181460146814503258406FB
:10202000EFE05F8B13054006EFF07F9B4DA8370470
:102030000002FD5503258406EFE01FBCB7570800DA
:102040001307000823A0E78093041900CA853735D9
:102050000080130545BDEF00606D81460146814556
:1020600003258406EFE01F8713052003EFF03F9759
:102070002689B7040002FD5503A58406EFE0DFB70B
:102080008946374408001306044093054440373519
:102090000080130505C0EF00606981460146814557
:1020A00003A58406EFE01F83930744401304044014
:1020B0000947BE822283BA83314E23207300010078
:1020C0000100010023A072007D1EE3180EFEB70779
:1020D000000283C7C70693F7F70FE39A07F0B70725
:1020E000000283C7C70693F7F70FB1F359B7828091
:1020F000411106C6B70700809387070073905730D9
:10210000B70705004167D8CF1307B008D8CBD84F21
:102110001166518FD8CF3757080093060004232645
:10212000D780D44FD18ED4CF930600082324D780F4
:10213000D84F8966558FD8CF374708008946232462
:10214000D740D84713678702D8C701478146314631
:102150008565938555D03715080013050540A12CDA
:10216000B73500809385C58B37350080130545C38F
:10217000752B0545EFE0DF8AB707000223A4A70609
:1021800081470547854613060040B7350080938593
:1021900005C437250080130505FEEFF04FDF8147AA
:1021A0000547854613060020B7350080938585C412
:1021B00037250080130545F2EFF06FDDEFF0AFE457
:1021C000B24041018280B707490023A2070081463F
:1021D000014794C7D8C737E6040013060620814696
:1021E00090CBD4CB98431367170098C3930700088C
:1021F000F3A747308280411106C6F327203493F6B7
:10220000F7001D476394E60063C60700CD35B24072
:1022100041018280B70649009C4ACC4A37E7040056
:10222000130707203E97B337F700AE9798CADCCA6A
:10223000EFE05FE269DDEFE0BFF7D1BF411106C615
:1022400073700430EFE0DFDDB24041018280411164
:1022500006C673700430EFE0BFDCB24041018280FB
:102260009C41370700407D17F98F9CC1B747080094
:1022700093870740630AF508B757080093870780DC
:10228000630DF508B74708006303F50A054582802A
:1022900011486309060714C583260E00FD8ED0453C
:1022A00033161601D18E2320DE0083A60E00F58F93
:1022B0009445B3961601D58F23A0FE0005079C41D7
:1022C000B3D6E740B5CE8546B396E600F58FFDD789
:1022D00003260300931817008D47B397170193C780
:1022E000F7FF7D8E03A845001378380033181801D6
:1022F000336606012320C300D0411148E30A06F9E2
:1023000041FE79B754C549BF37130500930E43C149
:10231000130E03C11303C3C009A837130500930E9E
:1023200003C2130EC3C1130383C1014749BF37134F
:102330000500930E83C0130E43C0130303C0F5B70B
:1023400001458280011106CE22CC2A8402C002C23D
:1023500002C402C6B717080093870740630CF50054
:10236000B7270800938707806304F402F2406244B1
:1023700005618280B70705000947D8CF930700069B
:102380003EC085473EC28A8537450800D13DC9BF5A
:10239000B70705001147D8CFB7070040938707302C
:1023A0003EC085473EC202C48A85374508001305F2
:1023B00005407D3565BF011106CE22CC26CA4AC82C
:1023C0004EC652C4AA842E893284368ABA899D3F69
:1023D000BD4763FB270523A0040023A62401FD5766
:1023E000DCCC23A2440123A43401936714009CC0D5
:1023F00005A0014511A005451377840009CB19C537
:1024000037072000F98F99EF014511A0014511ED23
:10241000DC4C1377440065D3370740007D8F71DBB8
:102420000545D9BF0545E5B70145F2406244D244B0
:102430004249B249224A056182805C4D93F7070404
:1024400099E30145828005458280411106C622C478
:102450002A842285DD3775DDB24022444101828025
:102460000CD58280484D1375050213351500828006
:10247000411106C622C4AA8537140800130504407A
:10248000C53713050440D137B24022444101828050
:10249000411106C622C42A8419A00504D13F034570
:1024A000040065FDB2402244410182805D7186C610
:1024B000A2C4A6C2CAC04EDE52DC56DA5AD82A8A54
:1024C0002EC6F1AA7537228AD9AA13073A00034506
:1024D00014000549DDAA13073A0003451400094911
:1024E000EDA2B30930410949EDAA93972900CE978F
:1024F0008607AA97938907FD0345070005079307F9
:1025000005FD93F7F70FA546E3F1F6FE3A8AF1AA27
:102510008149F5B72A869307E6FB93F6F70F5947EB
:10252000636BD70893972600373700801307C79E41
:10253000BA979C438287B247138747003AC683AA5B
:102540000700014411A00504B3878A0083C7070070
:10255000FDFB29A013050002213F26849377290063
:1025600091E793041400E36734FF268456850D3702
:1025700029A013050002ED3D268493041400E36AAC
:1025800034FF31AAB247138747003AC603C5070094
:10259000C53531A2A9469377490085C7B24713874D
:1025A00047003AC6984393074004630BF60201467E
:1025B000A5A0C146CDB76D3DDDA08946E9BFA146C6
:1025C000D9BF930740046308F600B247138747005A
:1025D0003AC69843E9BFB247138747003AC69843C3
:1025E000E35707FC3307E04013690901C9B7130833
:1025F0007002C29793F7F70F13041600938707032F
:1026000093040603338824002300F8FE63E4D50214
:10261000FD4763E187022286B377D702BA85335735
:10262000D7022548E37AF8FC13088007E30105FD8B
:102630001D48C1B79377090199CB930704033384ED
:1026400027009307D0022300F4FE1304260093779B
:10265000190089C7130B0003A28439A0130B0002D1
:10266000E5BF5A853135D6849377290091E7938A5F
:102670001400E3E834FFD6847D14930704038A979B
:1026800003C507FEEFF0DFDE65F831A01305000299
:10269000EFF01FDEA28413841400E3E934FF130477
:1026A0001A0003450A002DC993075002E31CF5E008
:1026B00013072A000345040093070003E307F5E02E
:1026C0009307D002E309F5E001499307A002E31163
:1026D000F5E4B2479386470036C683A90700E3C2F4
:1026E00009E0130A1700034507009307C0066306B5
:1026F000F5009307C0046317F5001369490003450B
:102700000A00050A11C993070006E3F5A7E01306BE
:1027100005FE1376F60F01B5B640264496440649E9
:10272000F259625AD25A425B61618280397106CE97
:102730002ED232D436D63AD83EDA42DC46DE4C10BF
:102740002EC6EFF0BFD6F24021618280B347B500BC
:102750008D8BB308C500B1E78D4763F4C704937749
:1027600035002A87B9EB13F6C8FFB306E640930796
:10277000000263C8D706AE86BA876371C70203A892
:1027800006009107910623AE07FFE3EAC7FE930711
:10279000F6FF998FF19B91073E97BE9563661701EF
:1027A00082802A87637E150383C705000507850598
:1027B000A30FF7FEE39AE8FE828083C605000507B3
:1027C00093773700A30FD7FE8505D1DF83C60500B9
:1027D000050793773700A30FD7FE8505F9FF61B78B
:1027E0008280411122C61304000283A3050083A244
:1027F000450083AF850003AFC50083AE050103AE7E
:10280000450103A3850103A8C5019451130747029D
:10281000B307E640232E77FC232057FE2322F7FF41
:102820002324E7FF2326D7FF2328C7FF232A67FE99
:10283000232C07FF232ED7FE93854502E347F4FAA6
:10284000AE86BA876371C70203A806009107910696
:1028500023AE07FFE3EAC7FE9307F6FF998FF19BCC
:1028600091073E97BE95636517013244410182800E
:1028700083C7050005078505A30FF7FEE387E8FE7C
:1028800083C7050005078505A30FF7FEE392E8FE61
:10289000E9BF00007C1E00807C1E00807C1E008042
:1028A000BC1E0080C81E0080EE1E00807C1E0080C2
:1028B0007C1E0080BC1E0080C81E00802F2F2F2F82
:1028C0002F2F2F2F2F2F2F2F2F2F2F2F2F2F2F2F18
:1028D0002F2F2F2F2F2F2F2F2F2F2F2F2F2F2F2F08
:1028E0002F2F2F2F2F2F2F2F2F2F2F2F2F2F2F2FF8
:1028F0002F2F2F2F2F2F2F2F2F2F2F2F2F2F2F2FE8
:102900002F2F2F2F2F0D0A2F2F2F20C4CEC1D0CE27
:1029100020CFCEC6C0CBCEC2C0D2DC20C220CCC815
:10292000D020CED2C5D7C5D1D2C2C5CDCDCEC3CE93
:1029300020CCC8CAD0CECACECDD2D0CECBCBC5D07B
:10294000C020EA31393438E2EA303138202F2F2FD5
:102950000D0A2F2F2F202020202020202020202073
:102960002020202020202020202020CDC5C2C5C42A
:10297000CECCDBC92020262020CACEC2C0D0CDDBE1
:10298000C92120202020202020202020202020209D
:1029900020202020202020202F2F2F0D0A2F2F2F06
:1029A0002F2F2F2F2F2F2F2F2F2F2F2F2F2F2F2F37
:1029B0002F2F2F2F2F2F2F2F2F2F2F2F2F2F2F2F27
:1029C0002F2F2F2F2F2F2F2F2F2F2F2F2F2F2F2F17
:1029D0002F2F2F2F2F2F2F2F2F2F2F2F2F2F2F2F07
:1029E0002F2F2F2F2F2F0D0A00000000BA25008057
:1029F0008425008094250080B6250080B6250080BF
:102A0000B6250080B6250080B6250080B62500805A
:102A1000B6250080B6250080B6250080B62500804A
:102A2000BE250080B6250080B6250080B625008032
:102A300036250080B625008094250080B6250080CC
:102A4000B6250080B22500800001020203030303C3
:102A5000040404040404040405050505050505052E
:102A6000050505050505050506060606060606060E
:102A700006060606060606060606060606060606F6
:102A800006060606060606060707070707070707DE
:102A900007070707070707070707070707070707C6
:102AA00007070707070707070707070707070707B6
:102AB00007070707070707070707070707070707A6
:102AC000070707070707070708080808080808088E
:102AD0000808080808080808080808080808080876
:102AE0000808080808080808080808080808080866
:102AF0000808080808080808080808080808080856
:102B00000808080808080808080808080808080845
:102B10000808080808080808080808080808080835
:102B20000808080808080808080808080808080825
:102B30000808080808080808080808080808080815
:102B4000080808080808080849444C450000000027
:102B5000546D725100000000546D72205376630072
:102B60005441534B20232032203A206379636C6513
:102B7000206E756D626572203A2025750D0A000081
:102B80005441534B20232032203A20796F75207313
:102B9000656E6420746865206279746520307825DC
:102BA0003032580D0A0000005441534B202320318D
:102BB000202E204C45445F4F4646203A20637963DF
:102BC0006C65206E756D626572203A2025750D0A60
:102BD000000000005441534B20232031202E204C74
:102BE00045445F4F4E20203A206379636C65206E28
:102BF000756D626572203A2025750D0A000000008F
:102C00005441534B20232031202E207430203D206E
:102C10003078253038582C207431203D20307825EC
:102C20003038582C207432203D20307825303858E8
:102C30000D0A00000D0A0D0A25730D0A00000000A0
:102C40005461736B310000005461736B32000000FB
:102C50000040000000E204007034000200000000A8
:040000058000000077
:00000001FF
